:020000043C02BC
:10002000720338407A0338407E033840BC033840BE
:10003000840338408A0338409003384094033840A2
:1000400098033840F4033840AA033840A4033840EA
:10005000AE033840BC033840BC033840BC033840D2
:10006000BC033840BC033840BC033840B4033840BC
:10007000AA0338407A0338407E033840B80338403A
:10008000A40338409E03384066033840FF01000057
:1000900014641427636869702F6573703332633397
:1000A0005F6972712E630000636869702F657370F9
:1000B000333263335F6770696F2E63006368697002
:1000C0002F657370333263335F73657269616C2EB1
:1000D000630000002F6465762F636F6E736F6C652D
:1000E000000000002F6465762F747479533000008F
:1000F000636869702F657370333263335F72746342
:100100002E630000636F6D6D6F6E2F72697363767F
:100110005F7377696E742E630000000025733A20C8
:10012000455843455054494F4E3A20556E6B6E6FBB
:10013000776E2E20204D43415553453A20253038C7
:10014000780A000025733A20455843455054494FDA
:100150004E3A2025732E204D43415553453A2025D4
:100160003038780A0000000025733A2050414E498B
:100170004321212120457863657074696F6E203DAD
:1001800020253038780A0000636F6D6D6F6E2F7216
:10019000697363765F657863657074696F6E2E63EB
:1001A00000000000496E737472756374696F6E208D
:1001B00061646472657373206D6973616C69676EE5
:1001C00065640000496E737472756374696F6E20A4
:1001D000616363657373206661756C740000000071
:1001E000496C6C6567616C20696E737472756374B9
:1001F000696F6E00427265616B706F696E740000AA
:100200004C6F61642061646472657373206D6973FF
:10021000616C69676E6564004C6F61642061636343
:10022000657373206661756C7400000053746F729F
:10023000652F414D4F2061646472657373206D6951
:1002400073616C69676E65640000000053746F72BF
:10025000652F414D4F20616363657373206661753F
:100260006C740000456E7669726F6E6D656E7420F9
:1002700063616C6C2066726F6D20552D6D6F6465C7
:1002800000000000456E7669726F6E6D656E7420B9
:1002900063616C6C2066726F6D20532D6D6F6465A9
:1002A000000000005265736572766564000000000E
:1002B000456E7669726F6E6D656E742063616C6CED
:1002C0002066726F6D204D2D6D6F6465000000001B
:1002D000496E737472756374696F6E2070616765BF
:1002E000206661756C7400004C6F616420706167FA
:1002F00065206661756C740053746F72652F414D93
:100300004F2070616765206661756C7400000000A5
:10031000696E69742F6E785F73746172742E6300F6
:100320002F000000505744006E73685F6D61696E66
:1003300000000000696E69742F6E785F6272696EEA
:100340006775702E6300000025733A204552524FA6
:1003500052206972713A2025640A00006972712F77
:100360006972715F756E65787065637465646973D1
:10037000722E630073636865642F73636865645FDE
:100380006C6F636B2E6300007461736B2F74617309
:100390006B5F696E69742E63000000007461736B9B
:1003A0002F7461736B5F73657475702E630000004A
:1003B0007461736B2F7461736B5F73746172742EED
:1003C00063000000656E7669726F6E2F656E765FF2
:1003D000736574656E762E630000000025733D25FD
:1003E00073000000656E7669726F6E2F656E765FC2
:1003F000756E736574656E762E63000067726F7537
:10040000702F67726F75705F6372656174652E63BC
:100410000000000067726F75702F67726F75705FF4
:100420006C656176652E630067726F75702F6772F9
:100430006F75705F736574757069646C6566696CFF
:1004400065732E630000000067726F75702F67720E
:100450006F75705F73657475707461736B66696CCA
:1004600065732E6300000000707468726561642F0C
:10047000707468726561645F72656C656173652E26
:1004800063000000707468726561642F7074687234
:100490006561645F6D75746578696E636F6E7369AD
:1004A0007374656E742E63007369676E616C2F736D
:1004B00069675F72656D6F766570656E64696E679A
:1004C0007369676E616C2E63000000007369676E6C
:1004D000616C2F7369675F64697370617463682E00
:1004E00063000000656E7669726F6E2F656E765FD1
:1004F0006475702E63000000656E7669726F6E2FF2
:10050000656E765F72656C656173652E63000000D1
:10051000656E7669726F6E2F656E765F66696E6462
:100520007661722E63000000656E7669726F6E2FC1
:10053000656E765F72656D6F76657661722E6300AB
:1005400067726F75702F67726F75705F7365747502
:100550007073747265616D732E6300006D717565E3
:1005600075652F6D715F7265636F7665722E6300BE
:100570006D71756575652F6D715F776169746972ED
:10058000712E6300707468726561642F7074687294
:100590006561645F696E697469616C697A652E630F
:1005A0000000000073656D6170686F72652F736580
:1005B0006D5F776169742E630000000073656D6183
:1005C00070686F72652F73656D5F636C6F636B77B7
:1005D0006169742E6300000073656D6170686F72ED
:1005E000652F73656D5F7265636F7665722E63004C
:1005F00073656D6170686F72652F73656D5F77618C
:1006000069746972712E63007369676E616C2F7310
:1006100069675F696E697469616C697A652E6300E8
:100620007369676E616C2F7369675F70656E64696B
:100630006E672E630000000077646F672F77645F3A
:1006400063616E63656C2E63000000007363686510
:10065000642F73636865645F69646C657461736B50
:100660002E63000073656D6170686F72652F73652E
:100670006D5F747279776169742E6300636C6F6368
:100680006B2F636C6F636B5F67657474696D652E48
:10069000630000002F6465762F6E756C6C0000009F
:1006A0002F6465762F7A65726F000000736368654A
:1006B000642F7461736B5F737461727475702E63F1
:1006C0000000000073656D6170686F72652F73655F
:1006D0006D5F73657470726F746F636F6C2E6300FF
:1006E0002A666C6F61742A00737464696F2F6C6979
:1006F000625F6C696273747265616D2E63000000E5
:10070000737464696F2F6C69625F6C696266696C8F
:100710006573656D2E63000073747265616D2F6C77
:1007200069625F6D656D6F757473747265616D2E4E
:1007300063000000556D656D000000006D6D5F6821
:100740006561702F6D6D5F696E697469616C697A3E
:10075000652E63006D6D5F686561702F6D6D5F73F1
:10076000656D2E63000000006D6D5F686561702F20
:100770006D6D5F616464667265656368756E6B2E2E
:10078000630000006D6D5F686561702F6D6D5F6661
:100790007265652E630000006D6D5F686561702F86
:1007A0006D6D5F6D616C6C696E666F2E630000002D
:1007B0006D6D5F686561702F6D6D5F6D616C6C6FE5
:1007C000632E63006D6D5F686561702F6D6D5F6690
:1007D0006F72656163682E63000000006D6D5F6875
:1007E0006561702F6D6D5F7265616C6C6F632E63F8
:1007F000000000006D6D5F686561702F6D6D5F7347
:100800006872696E6B6368756E6B2E630000000022
:10081000636F6D6D6F6E2F72697363765F65786954
:10082000742E630025733A20253038783A2025301D
:10083000386C78202530386C78202530386C78205A
:100840002530386C78202530386C78202530386C8D
:1008500078202530386C78202530386C780A0000F4
:1008600025733A202020253464202020253464205C
:10087000202025376C7520202025730A00000000F9
:1008800025733A20417373657274696F6E206661D7
:10089000696C65642061742066696C653A25732013
:1008A0006C696E653A202564207461736B3A20256B
:1008B000730A000025733A204550433A202530380A
:1008C000780A000025733A2041303A2025303878E4
:1008D0002041313A20253038782041323A202530E5
:1008E00038782041333A20253038780A000000005B
:1008F00025733A2041343A20253038782041353A62
:1009000020253038782041363A202530387820416B
:10091000373A20253038780A0000000025733A2045
:1009200054303A20253038782054313A2025303858
:10093000782054323A20253038782054333A202514
:100940003038780A0000000025733A2054343A20E9
:10095000253038782054353A2025303878205436E0
:100960003A20253038780A0025733A2053303A204F
:10097000253038782053313A2025303878205332CA
:100980003A20253038782053333A20253038780AF9
:100990000000000025733A2053343A20253038787F
:1009A0002053353A20253038782053363A202530E8
:1009B00038782053373A20253038780A0000000074
:1009C00025733A2053383A20253038782053393A65
:1009D0002025303878205331303A2025303878209F
:1009E0005331313A20253038780A000025733A20F7
:1009F00053503A20253038782046503A2025303858
:100A0000782054503A20253038782052413A202519
:100A10003038780A0000000025733A2073703A20BD
:100A200020202020253038780A00000025733A2045
:100A300049525120737461636B3A0A0025733A205E
:100A40002020626173653A20253038780A00000062
:100A500025733A20202073697A653A20253038784A
:100A60000A00000025733A204552524F523A205353
:100A70007461636B20706F696E7465722069732096
:100A80006E6F742077697468696E20746865206978
:100A90006E7465727275707420737461636B0A0092
:100AA00025733A205573657220737461636B3A0A3B
:100AB0000000000025733A204552524F523A20530D
:100AC0007461636B20706F696E7465722069732046
:100AD0006E6F742077697468696E20616C6C6F63E7
:100AE0006174656420737461636B0A0025733A2036
:100AF00020202050494420202020505249202020EE
:100B00002020535441434B202020434F4D4D414E14
:100B1000440A000025733A2020202D2D2D2D202061
:100B2000202D2D2D2D20202025376C75202020698B
:100B300072710A00636F6D6D6F6E2F7269736376E9
:100B40005F626C6F636B7461736B2E6300000000F7
:100B5000636F6D6D6F6E2F72697363765F73696714
:100B600064656C697665722E63000000636F6D6D5D
:100B70006F6E2F72697363765F756E626C6F636BF5
:100B80007461736B2E6300004552524F523A206ECF
:100B900073685F636F6E736F6C656D61696E282932
:100BA0002072657475726E65643A2025640A0000CF
:100BB0006E73685F636F6E736F6C656D61696E2EC7
:100BC000630000007700000025733A204552524F21
:100BD000523A205B25645D204661696C656420742F
:100BE0006F2073656E64206275666665723A2025B3
:100BF000640A00006E73685F73657373696F6E2EAD
:100C0000630000002D68000055736167653A202578
:100C100073205B3C7363726970742D706174683EFD
:100C20007C2D63203C636F6D6D616E643E5D0A00D8
:100C30002D630000726561646C696E6500000000E0
:100C40006E73685F73657373696F6E00726561645C
:100C50006C696E652E630000726561646C696E6517
:100C60005F66642E63000000726561646C696E6586
:100C70005F636F6D6D6F6E2E6300000025733A2009
:100C800042472025730A000025733A204247202559
:100C90007320636F6D706C6574650A00220000003C
:100CA0007768696C65000000756E74696C000000FF
:100CB000646F0000646F6E65000000006673656518
:100CC0006B00000069660000210000007468656E1A
:100CD00000000000656C736500000000666900009C
:100CE0006E696365000000002D64000026000000AE
:100CF0006F70656E0000000073636865645F676510
:100D0000747061726D000000707468726561645F78
:100D100063726561746500002573205B25643A2564
:100D2000645D0A00666F70656E0000006674656C35
:100D30006C0000006C6F6F700000000025730000F5
:100D4000202025732025730A000000002020257331
:100D50000A00000025732075736167653A00000082
:100D60004E534820636F6D6D616E6420666F726DC7
:100D7000733A0A0020205B6E696365205B2D642056
:100D80003C6E6963656E6573733E3E5D5D203C63DA
:100D90006D643E205B3E203C66696C653E7C3E3E59
:100DA000203C66696C653E5D205B265D0A0A00009A
:100DB0004F520A0020206966203C636D643E0A00A1
:100DC00020207468656E0A00202020205B73657106
:100DD00075656E6365206F66203C636D643E5D0AD9
:100DE000000000002020656C73650A002020666901
:100DF0000A0A000020207768696C65203C636D64F6
:100E00003E0A00002020646F0A0000002020646F6A
:100E10006E650A0A000000002020756E74696C205F
:100E20003C636D643E0A000068656C700000000061
:100E3000202000000A4275696C74696E2041707050
:100E4000733A0A005768657265203C636D643E2002
:100E50006973206F6E65206F663A0A002E000000ED
:100E60003C7363726970742D706174683E00000099
:100E70005B0000003C65787072657373696F6E3E4D
:100E8000205D00003F000000626173656E616D656A
:100E9000000000003C706174683E205B3C73756626
:100EA0006669783E5D000000627265616B0000005B
:100EB000636174003C706174683E205B3C706174D7
:100EC000683E205B3C706174683E202E2E2E5D5D76
:100ED00000000000636400005B3C6469722D706177
:100EE00074683E7C2D7C7E7C2E2E5D00637000003D
:100EF0003C736F757263652D706174683E203C644D
:100F00006573742D706174683E000000636D70003D
:100F10003C70617468313E203C70617468323E0000
:100F20006469726E616D65003C706174683E0000BA
:100F30006464000069663D3C696E66696C653E20CC
:100F40006F663D3C6F757466696C653E205B6273CD
:100F50003D3C7365637473697A653E5D205B636FC6
:100F6000756E743D3C736563746F72733E5D205B98
:100F7000736B69703D3C736563746F72733E5D00A3
:100F8000646600005B2D685D000000006563686FAB
:100F9000000000005B2D6E5D205B3C737472696E17
:100FA000677C246E616D653E205B3C737472696E74
:100FB000677C246E616D653E2E2E2E5D5D00000007
:100FC00065786563000000003C6865782D616464A5
:100FD000726573733E00000065786974000000005C
:100FE00066616C7365000000667265650000000054
:100FF0005B2D765D205B3C636D643E5D0000000010
:1010000068657864756D70003C66696C65206F7208
:10101000206465766963653E000000006B696C6C56
:10102000000000005B2D3C7369676E616C3E5D20C3
:101030003C7069643E0000006C7300005B2D6C52D4
:10104000735D203C6469722D706174683E0000001D
:101050006D6B6469720000006D6B726400000000CB
:101060005B2D6D203C6D696E6F723E5D205B2D7354
:10107000203C736563746F722D73697A653E5D20E1
:101080003C6E736563746F72733E00006D6F756EB6
:10109000740000005B2D74203C6673747970653EAB
:1010A000205B2D6F203C6F7074696F6E733E5D2006
:1010B0005B3C626C6F636B2D6465766963653E5D56
:1010C000203C6D6F756E742D706F696E743E5D009F
:1010D0006D7600003C6F6C642D706174683E203C3E
:1010E0006E65772D706174683E0000007072696EE5
:1010F000746600005B5C784E4E5D205B5C6E5C72DB
:101100005C745D205B3C737472696E677C246E61F5
:101110006D653E205B3C737472696E677C246E6102
:101120006D653E2E2E2E5D5D000000007073000088
:1011300070776400726D00005B2D725D203C666903
:101140006C652D706174683E00000000726D64690A
:10115000720000003C6469722D706174683E00008A
:101160005B7B2B7C2D7D7B657C787C78657C6578D2
:101170007D5D205B3C6E616D653E203C76616C75EB
:10118000653E5D00736C6565700000003C736563CF
:101190003E000000736F75726365000074657374C0
:1011A000000000003C65787072657373696F6E3E75
:1011B0000000000074696D6500000000223C636F50
:1011C0006D6D616E643E22007472756500000000F2
:1011D0007472756E63617465000000002D73203CAD
:1011E0006C656E6774683E203C66696C652D706145
:1011F00074683E00756E616D650000005B2D6120B6
:101200007C202D696D6F707273765D00756D6F75E2
:101210006E740000756E7365740000003C6E616D45
:10122000653E000075736C65657000003C75736504
:10123000633E0000786400003C6865782D6164645A
:10124000726573733E203C627974652D636F756EB1
:10125000743E00002E2E00002F25730025732F25CD
:101260007300000073746174000000002025730097
:10127000253864002F0A00002D2D2D2D2D2D2D2D0C
:101280002D2D000025733A0A00000000726561648C
:101290000000000077726974650000006C527300F2
:1012A0003A6D3A733A000000626F61726463746C65
:1012B00028424F415244494F435F4D4B524429000D
:1012C00072656E616D6500002D720000756E6C694F
:1012D0006E6B000066696C65732064696666657292
:1012E0003A20627974652025750A00002D7300008C
:1012F000667472756E6361746500000069663D0016
:101300006F663D0062733D00636F756E743D000053
:10131000736B69703D00000025732F25732F737464
:10132000617475730000000061737072696E746699
:1013300000000000253573200000000025337320D5
:10134000252D387320252D37732025337320252D27
:10135000387320252D39732000000000252D3873A7
:101360002000000025732F25732F737461636B00B9
:10137000253036752000000025732F25732F636DEF
:10138000646C696E6500000043616C6C696E672077
:1013900025700A005049440047524F555000000044
:1013A0004556454E5400000053544154450000003A
:1013B0004E5058005459504500000000504F4C49C1
:1013C00043590000505249005349474D41534B0087
:1013D000535441434B0000002536732000000000A9
:1013E000434F4D4D414E44002F70726F630000001B
:1013F0007461736B000000002F70726F632F6D6556
:101400006D696E666F000000636C6F636B5F67658C
:101410007474696D650000000A256C752E253034E2
:101420006C75207365630A006E73685F676574642A
:1014300069727061746800007E0000002D00000079
:1014400063686469720000006E65450073657465C9
:101450006E760000756E736574656E760000000030
:10146000657370333263332D6465766B6974000085
:1014700061736F6E72766D7069000000253034788C
:101480003A20000025303278200000002020200083
:10149000256300004865782064756D7000000000C9
:1014A0006D616C6C6F6300002573206174202530C2
:1014B000386A78006E73683A2025733A20436F7556
:1014C0006C64206E6F74206F70656E202573202809
:1014D00069732070726F636673206D6F756E7465CB
:1014E000643F293A2025640A000000006E73685F9B
:1014F00066737574696C732E63000000776169749C
:10150000706964002F70726F632F66732F7573613B
:10151000676500002F70726F632F66732F626C6FA8
:10152000636B73002F70726F632F66732F6D6F750F
:101530006E7400003A6F3A743A0000002563256328
:1015400025632563000000000D0000000900000075
:101550002D6E00002D7A00002D6200002D65000028
:101560002D6600002D7700003D3D0000213D00006C
:101570002D6571002D6765002D6774002D6C650069
:101580002D6C74002D6E65002D6100002D6F000024
:10159000696E6F64652F66735F66696C65732E6331
:1015A00000000000696E6F64652F66735F696E6F7F
:1015B00064652E6300000000696E6F64652F6673BA
:1015C0005F696E6F6465726573657276652E630020
:1015D000696E6F64652F66735F696E6F64657365AE
:1015E000617263682E6300007666732F66735F63B3
:1015F0006C6F73652E6300007666732F66735F648D
:101600007570322E630000007666732F66735F6913
:101610006F63746C2E6300007666732F66735F6D64
:101620006B6469722E6300007666732F66735F6F5A
:1016300070656E2E630000007666732F66735F72AE
:101640006561642E630000007666732F66735F72B7
:10165000656E616D652E63007666732F66735F72CB
:101660006D6469722E6300007666732F66735F7314
:101670007461742E630000007666732F66735F7565
:101680006E6C696E6B2E63007666732F66735F7483
:1016900072756E636174652E630000007666732F49
:1016A00066735F66646F70656E2E63006469726551
:1016B0006E742F66735F6F70656E6469722E63005F
:1016C0006D6F756E742F66735F6D6F756E742E63BC
:1016D0000000000070726F63667300006D6F756EBE
:1016E000742F66735F756D6F756E74322E630000B4
:1016F00070726F6366732F66735F70726F63667369
:101700002E6300005B302D395D2A2F2A2A0000004D
:101710005B302D395D2A00006D656D696E666F0066
:101720006D656D64756D700066732F626C6F636BB1
:101730007300000066732F6D6F756E7400000000FB
:1017400066732F75736167650000000073656C66D2
:101750000000000073656C662F2A2A00757074699A
:101760006D65000076657273696F6E0070726F63ED
:1017700066732F66735F70726F63667370726F63E8
:101780002E6300004E616D653A000000252D313258
:1017900073252E3138730A00547970653A000000C1
:1017A000252D31327325730A0000000047726F75D2
:1017B000703A0000252D31327325640A00000000C4
:1017C00053746174653A0000466C6167733A0000B7
:1017D000252D3132732563256325630A000000003F
:1017E0005072696F726974793A00000053636865DA
:1017F00064756C65723A00005369674D61736B3AAA
:1018000000000000252D3132732530386C780A0035
:101810002025700A00000000537461636B416C6CFA
:101820006F633A00252D31327325700A00000000E5
:10183000537461636B426173653A00005374616372
:101840006B53697A653A0000252D313273256C643B
:101850000A0000004D61696E207461736B3A0000EC
:10186000506172656E743A00252D313273307825DF
:101870003032780A000000004D656D626572733A7F
:101880000000000050415448000000004F464C4109
:1018900047530000504F5300464400000A252D33A3
:1018A0007320252D387320252D38732025730A00C9
:1018B0002533642025386C6420253878000000002A
:1018C0005461736B0000000070746872656164009D
:1018D0004B74687265616400496E76616C6964007E
:1018E00057616974696E672C556E6C6F636B00008D
:1018F000526561647900000052756E6E696E670012
:10190000496E61637469766500000000576169740F
:10191000696E672C53656D6170686F7265000000B9
:1019200057616974696E672C5369676E616C00005A
:1019300057616974696E672C4D5120656D707479BB
:101940000000000057616974696E672C4D51206674
:10195000756C6C0067726F75702F66640000000014
:101960006664000067726F75702F737461747573AD
:1019700000000000737461747573000067726F7506
:1019800070000000737461636B000000636D646C31
:10199000696E650053434845445F4649464F000021
:1019A00053434845445F52520000000053434845AA
:1019B000445F53504F52414449430000534348450C
:1019C000445F4F544845520070726F6366732F66D0
:1019D000735F70726F636673757074696D652E6383
:1019E0000000000025376C752E253032750A000086
:1019F00070726F6366732F66735F70726F63667366
:101A00006D656D696E666F2E630000006C617267B4
:101A1000657374007573656400000000746F746111
:101A20006C0000002531337325313173253131735A
:101A300025313173253131732537732537730A000A
:101A40006E667265650000006E7573656400000067
:101A5000253132733A2531316C752531316C75255C
:101A600031316C752531316C7525376C7525376CC6
:101A7000750A000075736167653A203C757365648B
:101A80002F667265653E0A00757365643A20647559
:101A90006D7020616C6C20616C6C6F636174656447
:101AA000206E6F64650A667265653A2064756D70B4
:101AB00020616C6C2066726565206E6F64650A003B
:101AC00070726F6366732F66735F70726F63667395
:101AD00076657273696F6E2E630000002573207641
:101AE000657273696F6E2025732025730A000000EC
:101AF000696E6F64652F66735F696E6F6465666992
:101B00006E642E6300000000696E6F64652F66735B
:101B10005F696E6F646572656C656173652E6300E5
:101B2000696E6F64652F66735F696E6F6465726559
:101B30006D6F76652E6300006472697665722F663C
:101B4000735F66696E64626C6F636B6472697665FD
:101B5000722E63006D6F756E742F66735F70726F97
:101B60006366735F6D6F756E742E63002020466927
:101B70006C6573797374656D2020202053697A65D4
:101B80002020202020205573656420204176616943
:101B90006C61626C65204D6F756E746564206F6E4C
:101BA0000A0000002020252D3130732025366C6C72
:101BB0007525632025386C6C752563202025386CCD
:101BC0006C7525632025730A000000002020426CFC
:101BD0006F636B202020204E756D6265720A0000D5
:101BE000202053697A652020202020426C6F636B8F
:101BF0007320202020202020557365642020204160
:101C00007661696C61626C65204D6F756E74656498
:101C1000206F6E0A0000000025366C7520253130DB
:101C20006C6C75202531306C6C7520202531306C42
:101C30006C752025730A00002020257320747970AC
:101C4000652025730A000000556E7265636F676E2C
:101C5000697A6564000000006D6F756E742F66739D
:101C60005F666F72656163686D6F756E74706F69C2
:101C70006E742E6300000000707468726561642FDA
:101C8000707468726561645F6465746163682E6313
:101C900000000000707468726561642F707468726F
:101CA0006561645F636F6D706C6574656A6F696EA2
:101CB0002E630000707468726561642F70746872BE
:101CC0006561645F66696E646A6F696E696E666F8E
:101CD0002E63000073636865642F73636865645FD7
:101CE0006164647265616479746F72756E2E6300ED
:101CF00073636865642F73636865645F72656D6F95
:101D000076657265616479746F72756E2E6300001A
:101D100073636865642F73636865645F616464708E
:101D200072696F726974697A65642E6300000000DD
:101D300073636865642F73636865645F6D6572675C
:101D40006570656E64696E672E6300007363686515
:101D5000642F73636865645F616464626C6F636B56
:101D600065642E630000000073636865642F73630D
:101D70006865645F72656D6F7665626C6F636B65D5
:101D8000642E630073636865642F73636865645FC2
:101D900067657473747265616D732E630000000073
:101DA00073636865642F73636865645F73657470DB
:101DB00072696F726974792E6300000073636865DD
:101DC000642F73636865645F6765745F73746163D0
:101DD0006B696E666F2E630073636865642F73634F
:101DE0006865645F776169747069642E63000000E0
:101DF00073656D6170686F72652F73656D5F726575
:101E00007365742E630000007461736B2F746173CB
:101E10006B5F7465726D696E6174652E630000009E
:101E20007461736B2F7461736B5F737061776E2E67
:101E3000630000006E787461736B5F737061776E1E
:101E40005F70726F7879000067726F75702F6772BC
:101E50006F75705F7761697465722E6300000000B2
:101E600073636865642F73636865645F726F756E12
:101E700064726F62696E2E63000000007461736BA0
:101E80002F7461736B5F737061776E7061726D73C5
:101E90002E6300007369676E616C2F7369675F74EE
:101EA000696D6564776169742E6300007379736C82
:101EB0006F672F7379736C6F675F73747265616D91
:101EC0002E6300007379736C6F672F7379736C6F77
:101ED000675F707574632E63000000004E75747444
:101EE0005800000031302E332E30000031333A35A7
:101EF000323A353800000000446563202035203236
:101F000030323300336662353733373935380000C5
:101F10002573202573202573000000007269736308
:101F20002D760000707468726561642F7074687239
:101F30006561645F6372656174652E630000000013
:101F400073636865642F73636865645F6765747045
:101F500072696F726974796D61782E630000000098
:101F600073636865642F73636865645F6765747025
:101F700072696F726974796D696E2E63000000007A
:101F8000737061776E2F6C69625F707366615F61F9
:101F900064646F70656E2E6300000000737061777B
:101FA0006E2F6C69625F707366615F6465737472D3
:101FB0006F792E6300000000737061776E2F6C697B
:101FC000625F7073615F696E69742E630000000068
:101FD000737061776E2F6C69625F7073615F736598
:101FE00074666C6167732E63000000007370617724
:101FF0006E2F6C69625F7073615F73657473636881
:102000006564706172616D2E6300000073706177AA
:102010006E2F6C69625F7073615F73657473636860
:102020006564706F6C6963792E630000737061770B
:102030006E2F6C69625F7073615F73657473746136
:10204000636B73697A652E630000000073746469C2
:102050006F2F6C69625F7661737072696E74662E41
:1020600063000000737464696F2F6C69625F666F50
:1020700070656E2E6300000073747265616D2F6C65
:1020800069625F6E756C6C6F757473747265616D87
:102090002E63000073747265616D2F6C69625F73EB
:1020A00074646F757473747265616D2E63000000E3
:1020B000556E6B6E6F776E206572726F72000000E6
:1020C00053756363657373004F7065726174696FF4
:1020D0006E206E6F74207065726D69747465640033
:1020E0004E6F20737563682066696C65206F72207F
:1020F0006469726563746F72790000004E6F2073BB
:102100007563682070726F6365737300496E7465E0
:10211000727275707465642073797374656D206371
:10212000616C6C00492F4F206572726F7200000065
:102130004E6F207375636820646576696365206FF0
:1021400072206164647265737300000041726720DD
:102150006C69737420746F6F206C6F6E6700000081
:102160004578656320666F726D6174206572726F69
:10217000720000004261642066696C65206E756DB6
:10218000626572004E6F206368696C642070726FC4
:1021900063657373657300005472792061676169C8
:1021A0006E0000004F7574206F66206D656D6F7254
:1021B000790000005065726D697373696F6E2064F9
:1021C000656E696564000000426164206164647248
:1021D00065737300426C6F636B2064657669636539
:1021E00020726571756972656400000044657669E6
:1021F0006365206F72207265736F7572636520620C
:102200007573790046696C6520657869737473002D
:1022100043726F73732D646576696365206C696EB4
:102220006B0000004E6F20737563682064657669EB
:10223000636500004E6F7420612064697265637489
:102240006F72790049732061206469726563746FED
:1022500072790000496E76616C69642061726775FD
:102260006D656E740000000046696C6520746162E3
:102270006C65206F766572666C6F7700546F6F20A7
:102280006D616E79206F70656E2066696C65730094
:102290004E6F74206120747970657772697465720D
:1022A00000000000546578742066696C65206275D2
:1022B0007379000046696C6520746F6F206C6172E1
:1022C000676500004E6F207370616365206C656602
:1022D00074206F6E2064657669636500496C6C6577
:1022E00067616C207365656B000000005265616476
:1022F0002D6F6E6C792066696C65207379737465D7
:102300006D000000546F6F206D616E79206C696EF6
:102310006B73000042726F6B656E207069706500B0
:102320004D61746820617267756D656E74206F759C
:1023300074206F6620646F6D61696E206F66206621
:10234000756E63004D61746820726573756C7420DE
:102350006E6F7420726570726573656E7461626C05
:10236000650000004E6F206D657373616765206FB7
:102370006620646573697265642074797065000015
:102380004964656E7469666965722072656D6F7601
:10239000656400004368616E6E656C206E756D62E9
:1023A0006572206F7574206F662072616E676500BC
:1023B0004C6576656C2032206E6F742073796E6385
:1023C00068726F6E697A6564000000004C6576651E
:1023D0006C20332068616C74656400004C65766520
:1023E0006C20332072657365740000004C696E6B5D
:1023F000206E756D626572206F7574206F66207235
:10240000616E67650000000050726F746F636F6CDF
:1024100020647269766572206E6F742061747461D5
:1024200063686564000000004E6F204353492073C9
:10243000747275637475726520617661696C61622E
:102440006C6500004C6576656C20322068616C74A8
:10245000656400005265736F757263652064656121
:10246000646C6F636B20776F756C64206F6363754A
:10247000720000004E6F207265636F7264206C6F93
:10248000636B7320617661696C61626C650000004A
:10249000496E76616C69642065786368616E676512
:1024A00000000000496E76616C6964207265717588
:1024B0006573742064657363726970746F72000071
:1024C00045786368616E67652066756C6C00000016
:1024D0004E6F20616E6F646500000000496E76618A
:1024E0006C6964207265717565737420636F6465CF
:1024F00000000000496E76616C696420736C6F7433
:102500000000000046696C65206C6F636B696E6744
:1025100020646561646C6F636B206572726F72001A
:1025200042616420666F6E742066696C6520666F18
:10253000726D617400000000446576696365206E09
:102540006F7420612073747265616D004E6F20643A
:1025500061746120617661696C61626C6500000084
:1025600054696D6572206578706972656400000059
:102570004F7574206F662073747265616D7320727D
:1025800065736F7572636573000000004D61636869
:10259000696E65206973206E6F74206F6E20746899
:1025A00065206E6574776F726B0000005061636B1D
:1025B000616765206E6F7420696E7374616C6C6501
:1025C000640000004F626A6563742069732072655D
:1025D0006D6F7465000000004C696E6B206861735C
:1025E000206265656E207365766572656400000023
:1025F000416476657274697365206572726F7200EA
:1026000053726D6F756E74206572726F7200000088
:10261000436F6D6D756E69636174696F6E2065726D
:10262000726F72206F6E2073656E640050726F74EB
:102630006F636F6C206572726F7200004D756C7401
:1026400069686F7020617474656D707465640000F2
:10265000496E6F64652069732072656D6F746500E3
:1026600052465320737065636966696320657272B0
:102670006F7200004E6F7420612064617461206D80
:102680006573736167650000496E617070726F7089
:1026900072696174652066696C6520747970652063
:1026A0006F7220666F726D61740000004E616D651F
:1026B000206E6F7420756E69717565206F6E206E67
:1026C0006574776F726B000046696C652064657392
:1026D00063726970746F7220696E20626164207326
:1026E000746174650000000052656D6F746520614F
:1026F000646472657373206368616E67656400006B
:1027000043616E206E6F7420616363657373206133
:10271000206E656564656420736861726564206C11
:102720006962726172790000416363657373696EF7
:1027300067206120636F72727570746564207368BE
:1027400061726564206C69627261727900000000D8
:102750002E6C69622073656374696F6E20696E20E8
:10276000612E6F757420636F72727570746564008A
:10277000417474656D7074696E6720746F206C6944
:102780006E6B20696E20746F6F206D616E7920739F
:102790006861726564206C69627261726965730058
:1027A00043616E6E6F742065786563206120736885
:1027B00061726564206C6962726172792064697209
:1027C0006563746C7900000046756E6374696F6EA2
:1027D000206E6F7420696D706C656D656E746564D4
:1027E000000000004E6F206D6F72652066696C6599
:1027F000730000004469726563746F7279206E6FB4
:102800007420656D7074790046696C65206E616D29
:102810006520746F6F206C6F6E670000546F6F20BF
:102820006D616E792073796D626F6C6963206C697C
:102830006E6B7320656E636F756E74657265640090
:102840004F7065726174696F6E206E6F742073755E
:1028500070706F72746564206F6E207472616E7335
:10286000706F727420656E64706F696E7400000022
:1028700050726F746F636F6C2066616D696C792044
:102880006E6F7420737570706F72746564000000F1
:10289000436F6E6E656374696F6E207265736574E5
:1028A0002062792070656572000000004E6F206222
:1028B0007566666572207370616365206176616913
:1028C0006C61626C65000000416464726573732022
:1028D00066616D696C79206E6F7420737570706FAE
:1028E000727465642062792070726F746F636F6CAC
:1028F0000000000050726F746F636F6C2077726F0E
:102900006E67207479706520666F7220736F636BD9
:1029100065740000536F636B6574206F706572613E
:1029200074696F6E206F6E206E6F6E2D736F636BA8
:102930006574000050726F746F636F6C206E6F74FB
:1029400020617661696C61626C65000043616E6E46
:102950006F742073656E6420616674657220747292
:10296000616E73706F727420656E64706F696E74DF
:102970002073687574646F776E000000436F6E6E2D
:10298000656374696F6E20726566757365640000B7
:102990004164647265737320616C7265616479204F
:1029A000696E207573650000536F66747761726598
:1029B0002063617573656420636F6E6E656374690F
:1029C0006F6E2061626F7274000000004E65747754
:1029D0006F726B20697320756E72656163686162E6
:1029E0006C6500004E6574776F726B2069732064AC
:1029F0006F776E00436F6E6E656374696F6E2074DF
:102A0000696D6564206F757400000000486F737411
:102A100020697320646F776E000000004E6F207293
:102A20006F75746520746F20686F73740000000008
:102A30004F7065726174696F6E206E6F7720696E7A
:102A40002070726F6772657373000000536F636B61
:102A5000657420616C726561647920636F6E6E6568
:102A6000637465640000000044657374696E61748A
:102A7000696F6E206164647265737320726571752D
:102A800069726564000000004D65737361676520BD
:102A9000746F6F206C6F6E670000000050726F746F
:102AA0006F636F6C206E6F7420737570706F7274CB
:102AB00065640000536F636B6574207479706520E2
:102AC0006E6F7420737570706F72746564000000AF
:102AD00043616E6E6F742061737369676E207265F7
:102AE00071756573746564206164647265737300E5
:102AF0004E6574776F726B2064726F7070656420BE
:102B0000636F6E6E656374696F6E20626563617575
:102B10007365206F66207265736574005472616E10
:102B200073706F727420656E64706F696E74206963
:102B30007320616C726561647920636F6E6E65638A
:102B4000746564005472616E73706F727420656E88
:102B500064706F696E74206973206E6F7420636F88
:102B60006E6E656374656400546F6F206D616E797D
:102B7000207265666572656E6365733A2063616E87
:102B80006E6F742073706C69636500004C696D69C9
:102B90007420776F756C6420626520657863656565
:102BA00064656420627920617474656D7074656415
:102BB00020666F726B000000546F6F206D616E793C
:102BC000207573657273000051756F7461206578AC
:102BD00063656564656400005374616C65204E46EE
:102BE000532066696C652068616E646C6500000046
:102BF0004E6F7420737570706F727465640000009E
:102C00004E6F206D656469756D20666F756E64002A
:102C10004E6F207375636820686F7374206F722025
:102C20006E6574776F726B207061746800000000CD
:102C300046696C656E616D65206578697374732093
:102C40007769746820646966666572656E7420636E
:102C500061736500496C6C6567616C2062797465AD
:102C60002073657175656E636500000056616C7553
:102C70006520746F6F206C6172676520666F7220CB
:102C8000646566696E65642064617461207479703E
:102C9000650000004F7065726174696F6E2063613A
:102CA0006E63656C6C6564005374617465206E6F4F
:102CB00074207265636F76657261626C65000000F6
:102CC00050726576696F7573206F776E65722064D8
:102CD0006965640053747265616D73207069706515
:102CE000206572726F720000746C732F746C735F66
:102CF00064657374727563742E6300004F4C4450A6
:102D000057440000756E697374642F6C69625F7458
:102D100072756E636174652E63000000756E697371
:102D200074642F6C69625F6765746F70745F636F42
:102D30006D6D6F6E2E630000756E697374642F6C19
:102D400069625F6765746F7074766172732E630079
:102D5000737464696F2F6C69625F6C696266726517
:102D600061642E63000000006D6D5F686561702F07
:102D70006D6D5F6D656D64756D702E630000000094
:102D80002531327A75252A700A00000044756D706D
:102D900020616C6C2075736564206D656D6F727950
:102DA000206E6F646520696E666F3A0A000000004D
:102DB000416464726573730053697A6500000000B2
:102DC00025313273252A730A0000000044756D70A6
:102DD00020616C6C2066726565206D656D6F72791F
:102DE000206E6F646520696E666F3A0A000000000D
:102DF000546F74616C2053697A650000546F74617C
:102E00006C20426C6B7300002531327325313273B4
:102E10000A00000025313264253132640A000000C6
:102E2000636F6D6D6F6E2F72697363765F7265701D
:102E300072696F726974697A657274722E630000C8
:102E40004D454D535F6170700000000068656C6C0B
:102E50006F0000006E7368007368000048656C6C5A
:102E60006F2C20576F726C642121000052756E6EBA
:102E7000696E67204D454D53206170700000000061
:102E80002F6465762F69736D33333064686378001F
:102E9000785F6163633A20253132640A00000000E4
:102EA0006E73685F73797374656D2E630000000044
:102EB0007666732F66735F6C7365656B2E630000B7
:102EC0004552524F523A204661696C656420746FD6
:102ED000206D6F756E742070726F636673206174FD
:102EE000202F70726F633A2025640A004661696C76
:102EF000656420746F20696E697469616C697A65B4
:102F0000205350492564206472697665723A202501
:102F1000640A00004661696C656420746F20696E04
:102F2000697469616C697A65205350492564207021
:102F30006F72740A000000004661696C6564207459
:102F40006F20696E697469616C697A65202F6465A8
:102F5000762F69736D3333306468637820647269E7
:102F60007665720A000000004661696C6564207431
:102F70006F20696E6974202869736D33333064681B
:102F800063785F696E6974282929202F6465762F1C
:102F900069736D20202020333330646863782064A7
:102FA00072697665720A0000496E697469616C69BC
:102FB0007A696E67202F6465762F73706925642E99
:102FC0002E2E0A004661696C656420746F20696E5C
:102FD000697469616C697A652053504925642E0AC9
:102FE000000000004661696C656420746F207265A2
:102FF000676973746572202F6465762F7370692515
:10300000643A2025640A000070742D2570000000C9
:10301000707468726561642F707468726561645F52
:10302000657869742E63000067726F75702F677220
:103030006F75705F6A6F696E2E63000025733A20AA
:103040004552524F523A20556E7265636F676E69F2
:103050007A656420636D643A2025640A00000000EC
:1030600025733A204F50454E494E472E2E2E0A00CA
:1030700025733A20524547203D20253034780A00F8
:1030800073656E736F72732F69736D333330646859
:1030900063782E630000000025733A205354415496
:1030A00055535F524547203D202530347820286510
:1030B00078706563746564203642290A0000000058
:1030C00025733A204552524F523A204E6F74206574
:1030D0006E6F756768206D656D6F727920666F72AF
:1030E0002072656164696E67206F7574206120735A
:1030F000656E736F7220646174612073616D706CB2
:10310000650A000025733A204552524F523A204337
:103110006F756C64206E6F74206163717569726580
:10312000206465762D3E6461746173656D3A202577
:10313000640A000025733A204552524F523A204308
:103140006F756C64206E6F74206163717569726550
:1031500020707269762D3E6461746173656D3A20EA
:1031600025640A0025733A204552524F523A2046B0
:1031700061696C656420746F20616C6C6F6361744D
:103180006520696E7374616E63650A0025733A2069
:103190004552524F523A204661696C656420746F03
:1031A00020726567697374657220647269766572EE
:1031B0003A2025640A00000025733A205245534501
:1031C0005454494E472053570A00000025733A20B3
:1031D00038333320465245510000000025733A2011
:1031E00069736D3333306468637820696E6974691C
:1031F000616C697A65642E0A000000007370692FA3
:103200007370695F6472697665722E6300000000F6
:1032100025733A20636D643D2564206172673D2506
:103220006C750A002F6465762F7370692564000041
:103230006D6973632F72616D6469736B2E63000037
:103240002F6465762F72616D256400007370692F9D
:103250007370695F7472616E736665722E630000CD
:1032600025733A2073656E643D3078256C78206450
:103270006174615F7265673D307825780A000000EF
:1032800025733A20726563763D3078256C7820642A
:103290006174615F7265673D307825780A000000CF
:1032A00025733A2073656E643D3078256C78206113
:1032B0006E6420726563763D3078256C780A000074
:1032C00025733A206E626974733D25640A0000001C
:1032D00025733A206672657175656E63793D256C5C
:1032E000752C2061637475616C3D256C750A000056
:1032F00073656C656374000025733A2064657669B4
:10330000643A202530386C782043533A2025730ADC
:103310000000000025733A206D6F64653D25640A46
:103320000000000025733A20496E76616C696420C4
:103330006D6F64653A2025640A0000006368697057
:103340002F657370333263335F7370692E630000CF
:103350000008000004000000200000000000000041
:10336000800000000000200000200000008000001D
:103370000001000000020000020000004000000008
:1033800000000800008000000000000000000000B5
:103390008F0778000008000000000300080000000C
:1033A00002000000040000002000000010000000E7
:1033B00040000000000000200000001072697363EC
:1033C000765F657863657074696F6E00A401023C76
:1033D000C401023CE001023CF401023C0002023C58
:1033E0001802023C2C02023C4C02023C6402023CE9
:1033F0008402023CA402023CB002023CD002023C25
:10340000E802023CA402023CF802023C49646C65FA
:10341000205461736B0000000000000000000000F9
:10342000D01BC83F01000000DC1BC83F05000000A6
:10343000DC1BC83F05000000A81BC83F00000000BF
:10344000C81BC83F01000000C01BC83F00000000AF
:10345000B81BC83F01000000B01BC83F01000000BE
:103460006972715F756E65787065637465645F69B4
:10347000737200003C6E6F6E616D653E000000006F
:1034800000000000000000004C30004250300042BC
:103490000000000000000000543000420000000066
:1034A00000000000000000009C3000429830004204
:1034B0000000000000000000BA30004200000000E0
:1034C000F432004236390042DE310042DE3400423E
:1034D000000000007C370042E6330042000000009C
:1034E000286E756C6C29000072697363765F647571
:1034F0006D705F7461736B0072697363765F73687C
:103500006F777461736B730072697363765F737442
:1035100061636B64756D700072697363765F726569
:1035200067697374657264756D70000072697363A6
:10353000765F64756D7073746174650075705F613A
:1035400073736572740000006E73685F636F6E73EF
:103550006F6C657772697465000000001B5B4B003F
:103560006E73685F6368696C640000006E73683A2C
:103570002025733A20496E746572727570746564A3
:10358000206279207369676E616C0A006E73683A15
:103590002025733A20496E7465726E616C206572E5
:1035A000726F720A000000006E73683A2025733A49
:1035B000206F7574206F66206D656D6F72790A00DB
:1035C0006E73683A2025733A202573206661696C12
:1035D00065643A2025730A006E73683A2025733AB1
:1035E000206E6F742076616C696420696E20746847
:1035F000697320636F6E746578740A006E73683A3D
:103600002025733A206E657374696E6720746F6F3E
:1036100020646565700A00006E73683A2025733A6D
:1036200020746F6F206D616E7920617267756D65B2
:103630006E74730A000000006E73683A2025733AB6
:10364000206E6F20737563682025733A2025730AF6
:10365000000000006E73683A2025733A20636F6D96
:103660006D616E64206E6F7420666F756E640A0003
:103670006E73683A2025733A2076616C7565206F09
:103680007574206F662072616E67650A0000000025
:103690006E73683A2025733A20617267756D656EA6
:1036A0007420696E76616C69640A00006E73683A12
:1036B0002025733A206E6F206D61746368696E67B0
:1036C0002025730A000000006E73683A2025733AC3
:1036D000206D697373696E672072657175697265B3
:1036E0006420617267756D656E742873290A000025
:1036F0006E73683A2025733A2073796E746178206E
:103700006572726F720A00006E73683E20000000DE
:103710000A4E7574745368656C6C20284E534829A2
:10372000204E757474582D31302E332E300A00001F
:103730000000000031000000300000003F000000E9
:103740003E3E00003E00000022233B0A0000000035
:1037500020090A005C0E023C0680004202020000C2
:10376000600E023C700E023C3EA4004204070000C2
:10377000740E023C840E023C806F00420101000086
:1037800000000000880E023C647700420203000043
:10379000940E023CA80E023C706D00420101000034
:1037A00000000000B00E023CFE770042020700005D
:1037B000B40E023CD40E023C408F004201020000D5
:1037C000D80E023CEC0E023C747800420303000069
:1037D000F00E023C0C0F023C10800042030300007C
:1037E000100F023C200F023CD6770042020200007C
:1037F000280F023C300F023C868300420306000083
:10380000340F023C800F023CF29C00420102000097
:10381000840F023C8C0F023C3A90004201070000EA
:10382000940F023CC00F023C608A00420203000079
:10383000C80F023CD80F023CFA6E004201010000A2
:1038400000000000E00F023CF66E004201010000A3
:1038500000000000E80F023C268D0042010100003C
:1038600000000000280E023C806F004201030000AF
:10387000F00F023C0010023C1297004202020000CE
:103880000810023C1C10023C9C8B0042020300000A
:103890002410023C3810023CA07A004201050000CE
:1038A0003C10023C5010023C667C004202020000C8
:1038B000280F023C5810023CD67C00420206000051
:1038C0006010023C8C10023C3A9D0042010700004F
:1038D0009410023CD010023C327E004203030000F0
:1038E000D410023CEC10023C789F0042010700001B
:1038F000F410023C2C11023CC28A0042010100007B
:10390000000000003011023C309200420101000032
:10391000000000003411023CDC7E00420203000083
:103920003811023C4C11023C9A7F00420202000016
:103930005411023C182B023C5A920042020400002F
:103940006011023C8411023C928C00420202000091
:103950008C11023C9411023C0680004202020000DD
:10396000600E023C9C11023C36A40042030700009A
:10397000A411023CB411023C368D00420202000048
:10398000BC11023CC811023CF26E00420101000071
:1039900000000000D011023CF48100420404000049
:1039A000DC11023CF411023C0C94004201070000BF
:1039B000FC11023C0C12023C0A9F00420202000071
:1039C0005411023C1412023CB8930042020200005F
:1039D0001C12023C2412023CDC8C00420202000059
:1039E0002C12023C3412023CA69600420303000053
:1039F0003812023C0000000000000000010100003D
:103A00000000000064640000537461636B53697AC2
:103A1000653A00005369674D61736B3A000000001E
:103A20005363686564756C65723A00005072696F23
:103A3000726974793A000000466C6167733A00005D
:103A400053746174653A000047726F75703A0000F4
:103A5000547970653A000000E09100425A910042AA
:103A60005A9100425A9100425A9100425A910042A2
:103A70005A91004200920042049200425A91004240
:103A80000C920042169200420892004210920042AC
:103A90002F0000004F4C4450574400005057440042
:103AA0009A95004286950042A09500423C950042BE
:103AB0006C950042729500427C950042EC94004265
:103AC000DA940042DA940042DA940042DA94004236
:103AD000DA940042DA940042DA940042D49400422C
:103AE000DA940042DA940042DA940042C49400422C
:103AF000DA940042B2940042CA940042DA9400423E
:103B0000B8940042B2940042DA940042DA9400423F
:103B1000BE940042756E6B6E6F776E0078BE004289
:103B200020BE004274BE00427CBE004280BE004205
:103B300084BE004270BE0042D416023C483B023CA8
:103B400000000000000000005AC1004276C7004299
:103B500024C70042FEC60042000000001AC1004215
:103B600000000000DEC600428EC6004200000000D9
:103B700000000000FAC4004244C70042D2C2004222
:103B800022C600421EC1004222C1004226C100429C
:103B90000000000000000000000000000000000025
:103BA000FAC10042000000000417023CFC3C023C49
:103BB000000000001017023CFC3C023C0200000028
:103BC0001817023C843D023C010000002017023C13
:103BD0005C3D023C010000002817023CE83D023C2D
:103BE000010000003417023CE83D023C01000000E7
:103BF0004017023CE83D023C010000004C17023C2B
:103C0000FC3C023C020000005417023CFC3C023C1D
:103C1000000000005C17023C343D023C0100000043
:103C20006417023CAC3D023C010000000ACD00429A
:103C300022CF004250D00042E0D20042DAD000420F
:103C4000BCD10042C018023CC818023CD018023C4B
:103C5000D818023CD818023CE018023CF018023C8C
:103C6000F818023C0019023C0C19023C2019023CD5
:103C70003019023C4419023CB43C023CA83C023CD2
:103C8000E43C023CD83C023CCC3C023CC03C023C04
:103C9000E43C023CD83C023CCC3C023CC03C023CF4
:103CA000B43C023CA83C023C5419023C6019023C62
:103CB000060800006419023C7419023C0508000063
:103CC0007C19023C7C19023C040400008419023C6B
:103CD0008419023C030800008C19023C8C19023C38
:103CE000020800007419023C7419023C010800002B
:103CF000140E023C140E023C000400000ACB0042E9
:103D00000ACC004284CC00420000000038CC0042C3
:103D10000ECA0042DACB00425AC90042B8CB004278
:103D2000A6C800429419023CA019023CAC19023CFE
:103D3000BC19023CACD3004220D400420AD300425A
:103D400000000000D8D30042000000000000000086
:103D50000000000000000000E4D200424AD6004209
:103D600018D700429CD500426CD60042CCD6004207
:103D70000000000000000000000000000000000043
:103D80004ED400424AD6004218D7004274D40042B2
:103D900000000000CCD6004200000000000000003F
:103DA00000000000000000004ED4004210D8004285
:103DB0008AD800427CD70042000000003ED8004272
:103DC00000000000000000000000000000000000F3
:103DD00056D70042E6DE004284DD004234DC004279
:103DE000424B4D475400000018DE004234DF0042D1
:103DF00068DB0042000000009ADE00420000000084
:103E000000000000000000000000000042DB004253
:103E1000B8F30042B8F3004200000000BEF30042D5
:103E20000000000000000000C020023C0100000073
:103E3000C820023C02000000E020023C0300000019
:103E4000FC20023C040000000C21023C05000000A4
:103E50002421023C060000003021023C0700000043
:103E60004C21023C080000006021023C09000000D7
:103E70007421023C0A0000008421023C0B00000077
:103E80009821023C0C000000A421023C0D0000001F
:103E9000B421023C0E000000C821023C0F000000CB
:103EA000D421023C10000000EC21023C1100000073
:103EB0000422023C120000001022023C1300000009
:103EC0002422023C140000003422023C15000000B1
:103ED0004422023C160000005422023C170000005D
:103EE0006822023C180000007C22023C19000000FD
:103EF0009022023C1A000000A422023C1B00000099
:103F0000B422023C1C000000C422023C1D00000040
:103F1000DC22023C1E000000EC22023C1F000000DC
:103F20000423023C200000001423023C2100000076
:103F30002023023C220000004423023C2300000016
:103F40006423023C240000008023023C2500000082
:103F50009423023C26000000B023023C270000000E
:103F6000CC23023C28000000DC23023C2900000096
:103F7000EC23023C2A0000000824023C2B00000035
:103F80002824023C2C0000004424023C2D000000A8
:103F90005424023C2E0000007424023C3200000035
:103FA0009024023C33000000A424023C34000000B2
:103FB000C024023C35000000D024023C3600000042
:103FC000DC24023C37000000F424023C38000000EE
:103FD0000425023C390000002025023C3C00000082
:103FE0003825023C3D0000004C25023C3E0000000C
:103FF0006025023C3F0000007025023C40000000AC
:104000008C25023C41000000AC25023C420000002F
:10401000C425023C43000000D825023C44000000B7
:10402000F025023C450000000026023C460000004E
:104030001026023C470000002C26023C4A000000EB
:104040003C26023C4B0000005026023C4C00000085
:104050006026023C4D0000007426023C4F00000028
:104060008826023C50000000AC26023C51000000B3
:10407000C826023C52000000E826023C5300000023
:104080000027023C540000002827023C5500000095
:104090005027023C560000007027023C57000000E9
:1040A000A027023C58000000C827023C590000002D
:1040B000E427023C5A000000F427023C5B000000A9
:1040C0000828023C5C0000001C28023C5F00000045
:1040D0004028023C600000007028023C680000009C
:1040E0009028023C69000000AC28023C6A000000F5
:1040F000C828023C6B000000F428023C6C00000061
:104100001429023C6D0000003429023C6E000000BE
:104110004C29023C6F0000007C29023C700000002A
:104120009029023C71000000A829023C72000000A6
:10413000CC29023C73000000E429023C740000001A
:10414000F429023C750000000C2A023C76000000B5
:104150001C2A023C77000000302A023C7800000054
:104160004C2A023C79000000682A023C7A000000D8
:10417000882A023C7B0000009C2A023C7C00000054
:10418000B42A023C7D000000D02A023C7E000000E0
:10419000F02A023C7F0000001C2B023C8000000043
:1041A000442B023C81000000682B023C820000008E
:1041B0008C2B023C83000000B82B023C84000000E2
:1041C000C82B023C85000000D82B023C8600000072
:1041D000F02B023C87000000002C023C880000000D
:1041E000102C023C89000000302C023C8A000000A8
:1041F000542C023C8B0000006C2C023C8C00000014
:10420000942C023C8D000000A82C023C8E00000083
:10421000C02C023C8F000000D42C023C05000000A2
:10422000402E023C6400000000080000F61201422B
:104230004C2E023C6400000000080000DE12014227
:10424000542E023C6400000000080000F8590042AF
:10425000582E023C64000000000800005A1301427E
:10426000000000000000000000000000000000004E
:1042700064020100000000000008000069736D3353
:104280003330646863785F726573657400000000A2
:1042900069736D333330646863785F696E69740085
:1042A00069736D333330646863785F6F70656E0077
:1042B00069736D333330646863785F726561645F1E
:1042C0006D6561737572656D656E745F646174614F
:1042D0000000000069736D333330646863785F7287
:1042E0006561640069736D333330646863785F6956
:1042F0006F63746C0000000069736D333330646861
:1043000063785F726567697374657200F81A0142B9
:104310007E1B01429C1B0142CE1A0142000000009C
:10432000D41A0142000000000000000073706964AC
:104330007276725F696F63746C00000054210142F1
:10434000E2200142DA200142DE20014200000000AA
:10435000B2210142000000004A22014248240142E9
:10436000DA24014280240142322301420624014220
:10437000D823014294230142000101000000010101
:10438000657370333263335F7370695F73656C6537
:1043900063740000657370333263335F7370695FF9
:1043A0007365746672657175656E637900000000EF
:1043B000657370333263335F7370695F7365746DF7
:1043C0006F646500657370333263335F7370695F68
:1043D0007365746269747300657370333263335F3D
:1043E0007370695F706F6C6C5F73656E6400000062
:1043F000657370333263335F7370695F706F6C6CB9
:104400005F65786368616E67650000007A2A014223
:10441000302A01423E290142862A01420C290142EA
:104420009C2D01428E2801423827014200000000E5
:10443000801A060008000000000000000A070206BB
:104440004000000040000000440000004400000064
:10445000410000004100000040000000400000005A
:0C4460003F0000003F00000000000000D2
:020000043FC8F3
:102D2000202DC83F15000000F4FFFFFF0016000033
:102D300000C2010008000001150614060000000191
:102D40000000000000000000000000000000000182
:102D50005818C83F00000000000000015819C83F83
:102D6000782DC83F242DC83F00000000000000005F
:102D70000000000000000000DA0C0042020B0042DC
:102D8000DA0B0042AA0D0042FE0A0042D80A0042B5
:102D90004E0B0042900A0042D20B00421A0B004236
:102DA000080B0042B60A0042FF0000000100FFFFCE
:102DB00000000000000000005CE100420000000094
:102DC0000000000001000000CC2DC83F103E023C76
:102DD000010000000C44023C3044023C00000000B2
:102DE00000000000000000000000000000000000E3
:042DF00000000000DF
:02000004403882
:100000006F0000086F00C0076F0080076F00400797
:100010006F0000076F00C0066F0080066F0040068B
:100020006F0000066F00C0056F0080056F0040057F
:100030006F0000056F00C0046F0080046F00400473
:100040006F0000046F00C0036F0080036F00400367
:100050006F0000036F00C0026F0080026F0040025B
:100060006F0000026F00C0016F0080016F0040014F
:100070006F0000016F00C0006F0080006F00400043
:100080001301C1F706C20EC612C816CA1ACC1ECE7C
:1000900022D026D22AD42ED632D836DA3ADC3EDE28
:1000A000C2C0C6C2CAC4CEC6D2C8D6CADACCDECE98
:1000B000E2D0E6D2EAD4EED6F2D8F6DAFADCFEDE08
:1000C000400122C47324003022C17324103422C0A2
:1000D000732520348A853721C83F13010152EF0070
:1000E00020052A810244731014340A44731004302A
:1000F00092404242D2426243F24302549254225509
:10010000B2554256D2566257F2570648964826498B
:10011000B649464AD64A664BF64B065C965C265D67
:10012000B65D465ED65E665FF65F224173002030A4
:10013000411122C406C626C22A87AE873724C83F8B
:1001400063450500AD46631AD502832604859305F1
:10015000C01881EE2328F484635807069376F70FBE
:100160007D46637BD6029305D0193705023C130503
:1001700045099740C801E780E0962328B48497108A
:10018000C801E78000E003250485B24023280484E9
:1001900022449244410182808546B7240C60137644
:1001A000F70F9384C4103397E60098C03727C83FF1
:1001B00013070783329703450700BE850505EF1037
:1001C000206223A00400C1B79843BE8501451107F2
:1001D00098C3EF10E06045BFB78500609385850840
:1001E00003A805001377150012071378F8FE33678C
:1001F000070198C1B78500609385450803A80500ED
:1002000013571500C178058BFD1833781801420784
:100210003367070198C1376702601307C7090C43AA
:1002200093576500858B13984700BD99B3E5050189
:100230000CC30C431398270013564500ED99B3E502
:1002400005010CC30C43058A13183600F999DD8D9E
:100250000CC337D701606C4B060693565500DD99E9
:10026000B3E505016CCB6C4B858AF5994D8E70CB4F
:1002700037D70160130747CD104393955600137687
:10028000F6FD4D8E10C310439395360086065D9A99
:100290004D8E10C31043759AD18E14C3B76600609B
:1002A00093860609984213965700AA071377F7FD1D
:1002B000518F98C2B75600609386060F9842137705
:1002C000F7BFD98F9CC29377F50F137505F05D8D3D
:1002D00013F70708B76702609387C70A0DC39843EF
:1002E0001367C70398C3B76702609387C70A984329
:1002F0001375051009C91367370098C382809843A6
:10030000137737FCC5B7719BCDBF130600548145E9
:10031000378500601713C801670003D1C9472A87D2
:1003200063E8A702B7070C60B146E10763F5A600D2
:10033000B7670260E1079443E94763E1E7083706DE
:10034000023C9317270013060602B2979C4382874C
:10035000B7070C609306D5FE1546F107E37DD6FC82
:10036000B7070C60C1BFB7070010FD8E0145A1CAD9
:100370008280856793870780CDBF9147FDB793073C
:100380000002E5B793070008CDB7B7072000F1BF1B
:100390008967E1BFA167D1BF93070010F9B7B7071D
:1003A0000020E1B793070004C9B789477DBFB707AD
:1003B000080065BFA14755BFC14745BF8146C94732
:1003C00063EDE702B7070C603146C1076375E600CD
:1003D000B7670260D1078843E94763E9E700B737A9
:1003E000023C0A0793870735BA979443758D3335D6
:1003F000A0008280930700208DBFB7070C60130612
:10040000D7FE9545D107E3F8C5FCB7070C60C107D7
:10041000D9B7B78700609387870B9C431395070173
:10042000418113D707016316E500FD177557637403
:10043000F700130580028280B7870060B85B9316CF
:10044000E5010A070983558FB8DBB45B1307F5FF95
:100450001337170093F6F6EF2207558FB8DBB85B1A
:100460007915B70600FC13351500FD166A05758F62
:10047000598DA8DB1305C0121703C8FF670083BDA1
:10048000B7870060A85B79818280011126CA4AC8BB
:1004900052C406CE22CC4EC6AA842E899D3F2A8AFB
:1004A00091ECB7870060938707079C430547894411
:1004B000F9836385E700F91793B417003785006067
:1004C0008329050789471305050793D9890093F9FF
:1004D0001900639DF418639609001C4193E7071007
:1004E0001CC1B7F70160B45719661397D400718F18
:1004F00069767D16F18E558FB8D737F701601307EF
:100500000708184393878706058B19EB98439316C2
:10051000370163D70600984393160701E3DD06FE13
:1005200037F5016001468565130585069710C801FA
:10053000E78080AF37F7016034573706FF7F9317A6
:100540000901F18F370601807D16F18ED58F3CD7DA
:10055000B7F701600947938707086394E41298434B
:100560009316390121641377F707558F98C337F530
:1005700001600146B7050080130585069710C80184
:10058000E78080AA37F501603706008081451305B2
:1005900085069710C801E78020A937450F0013058D
:1005A0000524B335A902228681463305A9029700A6
:1005B000C8FFE780E02F9700C8FFE780A0A9B7F643
:1005C000016037F7016093868606216613070708E6
:1005D0008042718C65C0B7F70160E0571D8037F528
:1005E0000160130585060146B70500809710C80114
:1005F000E78080A3378500603C59A20913050507F1
:1006000093F7F7EFB3E93701232035018547639965
:10061000F4000146930500209710C801E780C0A0B0
:10062000B3362A03131534011358D40033062A03B2
:100630001397F60193D5160093571600D98F138799
:10064000F7FF93B71700B387F5403A95B335E50048
:10065000C297BE959700C8FFE7808025F2406244AC
:10066000D2444249B249224A056182808547E39AD1
:10067000F4E61306002081459710C801E780C09A70
:100680008DB50547639DE4009843931639012164B5
:100690001377F707558F98C31304341BC9BD9843CC
:1006A0009316190159641377F707558F98C31304EC
:1006B00004F975BD1C43858B81DF15B7B7870060D2
:1006C000938707079C4305470945F9836385E7003E
:1006D000F91713B5170089454DBB011122CC26CA65
:1006E000B7070C6006CE4AC84EC683A987052A8480
:1006F00003A98705AE849700C8FFE78020E98947F2
:1007000063C28708C94701479146194681451305C9
:10071000D0069710C8FFE780E02493D7A9008D8BFF
:1007200091E71379F93F63030900493FB7070C606C
:10073000B84FFD1493F4F43F137707C0B8CFB84F08
:10074000FD769386F63F137707C0D98CA4CFB84FB8
:10075000758FB8CFB7470F00938707243304F4028F
:10076000B78700609387C70B31801317040141835B
:100770004204418F98C3F2406244D2444249B24994
:1007800005618280DD4741B74111014506C622C49B
:1007900026C24AC09700C8FFE7804088130755FF6C
:1007A000894763F5E700C5476310F514B7070C6088
:1007B0008C4BB7070C6003A94701B7670260C44BB5
:1007C00093C5F5FF1349F9FF93C4F4FFB717658884
:1007D0009387073F33E4F50037050C60A285014697
:1007E00041059710C801E780208437050C602286F8
:1007F000814561059710C801E780008337050C60CB
:100800000146814551059710C801E780E081370511
:100810000C600146814571059710C801E780C080D2
:1008200037050C60CA85014651059700C801E7806D
:10083000A07F37050C604A86814571059700C80185
:10084000E780807E37650260A685014651059700E6
:10085000C801E780607D37A6FB003765026013069C
:10086000F6FC814551059700C801E780E07BB7079A
:100870000C609853FD7637050C60758F98D337065A
:100880000001B7050002130545029700C801E78083
:10089000A079A144F3B404303724C83F930784A55A
:1008A00083C7D700130484A59DE3376502602166E2
:1008B000814551059700C801E780007737650260E0
:1008C0000146814561059700C801E780E0758347CF
:1008D000D4008507A306F40073900430B24022448C
:1008E00092440249410182808564B795080093844F
:1008F0000402394993858580D1BD37850060411157
:10090000814531053706008006C69700C801E7809B
:10091000A071B240B7870060884BB7870060CC4BAE
:10092000410182809357D500CE05411181464E0585
:10093000DD8D06C69700C8FFE78080F7B240410111
:100940008280B307A602B385C502CD833336A602E3
:10095000B2951395D5005D8DCD818280411106C67B
:100960004D3C85459D3BB240410145B25D71A2C4FD
:10097000135445006ECE0604935D3500B7C7E00200
:1009800093870780CAC06AD013792400135D2500BD
:100990008A0D3369F90066D293F74D00935C150018
:1009A0000E0D3369F90062D493778D00135C6500F6
:1009B000920C3369F9005ED693F70C01935B7500D6
:1009C000160C3369F9005AD893770C02135B850033
:1009D0009A0B3369F90056DA93F70B04935A950092
:1009E0001E0B3369F900A20A9377FB0F3369F900F4
:1009F00052DC93F70A10131A95003369F900A6C266
:100A000093770A20935455003369F9004EDE939989
:100A1000F4013369390186C64AC4937709026384B5
:100A20000724370600408145378500601305850897
:100A30009700C801E780405F937709046389072224
:100A40003706000881453785006013058508970043
:100A5000C801E780605D93770908638E0720370639
:100A6000002081453785006013058508137909103A
:100A70009700C801E780405B630309203706001038
:100A80008145378500603789006013058508970028
:100A9000C801E78060598327C907370740FC7D17E5
:100AA000F98F232EF9068327C90701777D17F98F60
:100AB000232EF9068327C907416713752400D98FB0
:100AC000232EF9068327C90761777D17F98F232E17
:100AD000F9068327C907116793FD4D00D98F232E8F
:100AE000F906B7C7E002938707805D8D3365B501CE
:100AF000137D8D003365A50193FC0C0133659501D1
:100B0000137C0C023365850193FB0B04336575017F
:100B1000137BFB0F3365650193FA0A1033655501AA
:100B2000137A0A2033654501336535012AC41375EC
:100B300005201309C9076308051481470947894639
:100B400001468145130510069710C8FFE78080E134
:100B5000378500600146B70500801305050897003A
:100B6000C801E780604C832709003707C4FF7D1761
:100B7000F98F3785006037060080814513058508A9
:100B80002320F9009700C801E780004A37850060FC
:100B90000146B70500D8130545039700C801E78053
:100BA000A048B7870060B85FB706C0FFFD16758F15
:100BB000B8DFB85FB7062000D604F58CB706E0FFB3
:100BC000FD16758FD98CA4DF0147814791461546E4
:100BD00081451305D0069710C8FFE780A0D8DD47F0
:100BE00001479146114681451305D0069710C8FF6D
:100BF000E78040D78147014791461D46814513054F
:100C0000D0069710C8FFE780E0D5DD470147914641
:100C1000194681451305D0069710C8FFE78080D498
:100C2000B7870060B857B7060080558FB8D7B85758
:100C3000B7060040558FB8D7B7870060B85BB706D6
:100C400000F0FD16758FB8DBB64026449644064981
:100C5000F259625AD25A425BB25B225C925C025DEC
:100C6000F24D616182800146B705004075BB0146C7
:100C7000B7050008C9BB0146B7050020E5B301462A
:100C8000B7050010FDBB1306001081454A8597008B
:100C9000C801E7806039832709003785006037067F
:100CA000008093F707F093E7E70F2320F9008145D1
:100CB000130505089700C801E780003737850060F5
:100CC0000146B7050080130585089700C801E78035
:100CD000A035832709003707C4FF7D17F98F370731
:100CE0000C00D98F2320F9006DBD411106C622C426
:100CF000378700605C5F3E05B7060C60C607C5839A
:100D0000C98F5CDFB7870060ACD737070C603786C8
:100D10000060B7850060B78700601307870493867B
:100D2000C6041306460CE105938747043705F07F98
:100D300013080010B70800800D4E08C3B362050108
:100D4000232057000F00F00F832207003703008095
:100D5000B3F26200E38802FE1348F8FFB3F2020127
:100D6000232057000F00F00F1348F8FF83A206005E
:100D7000232056000F00F00F83A20500B3E21201FA
:100D800023A055000F00F00F0F00F00F83A2070003
:100D9000B3F2C201E38A02FE378500608043130587
:100DA000C5040D4681459700C801E780E027B240A1
:100DB000135514002244058941018280411126C245
:100DC00006C622C44AC0378700605C5F3E05B7F69E
:100DD000FF3FC607C583C98F5CDFB7870060B85780
:100DE000B205F58DB71600C0FD16758FD98D378504
:100DF0000060ACD7B284814537060080610597005A
:100E0000C801E7806022B787006093874704984352
:100E10000D8B75DF8043378500603707023C058006
:100E20000D4681451305C5040329C70805889700A9
:100E3000C801E780601F81C44A85EFF0EFB9B24076
:100E40002285224492440249410182800111B70760
:100E50000C6026CA06CE22CC4AC84EC652C456C220
:100E6000A04F1841938787052980AA840D8815E330
:100E70000C454845EFF07F8685476313F42A6244AA
:100E8000F240D2444249B249224A924A05616FF087
:100E9000CFC78546631BD7206304E4100146930542
:100EA0000054378500609700C801E780E017EFF035
:100EB0004FD62A8437E500600146914513050504A5
:100EC00003A944009700C801E780001637E50060D9
:100ED00021468145130505049700C801E780C01429
:100EE0009307001E631FF90E37050C6011468145FC
:100EF00021059700C801E780201393070002630DC6
:100F0000F40C0D4A1544A14901499306B006114657
:100F10008145130560069710C8FFE78060A4CA8A60
:100F200093164400B366D90009468145130560064F
:100F30009710C8FFE780C0A2CE860D4681451305F5
:100F400060069710C8FFE780A0A1D68701478946B1
:100F500015468145130560069710C8FFE78080A0FD
:100F6000D6871147994615468145130560069710A7
:100F7000C8FFE780209F93660A091946814513053B
:100F800060069710C8FFE780A09D89470147854606
:100F900025468145130560069710C8FFE780809CB1
:100FA000B7070C60A04FC444B7070C6003A98700C3
:100FB0009307000A29806386F40693070005814998
:100FC0006392F4063705023C930520541305050F80
:100FD0009730C801E78000B1014A1144E949054949
:100FE0002DB737050C600146914521059700C801D2
:100FF000E7808003930700026302F40291490149EC
:101000009306900611468145130560069710C8FFA8
:10101000E78000950D4A1544814A19B79949054959
:10102000C5B78549F14701479146194681451305E2
:10103000D0069710C8FFE780E0929377140089CB21
:101040000D8885476318F40013793900631409008B
:10105000EFF0CFE637070C601C47FD769386F63F2E
:10106000F19BB3E737011CC7B7070C60B84F268563
:10107000137707C0B8CFB84F758F13670740B8CF45
:10108000B787006037574B4C9387C70B1307B7C41C
:1010900098C36244F240D2444249B249224A924A39
:1010A000056117F3C7FF6700634E8946631AD706C9
:1010B000214503A90700844397F0C7FFE780004D4F
:1010C000DD4701479146194681451305D006971023
:1010D000C8FFE78020899357A9008D8B81EB93F49B
:1010E000F43F914763F49700EFF04FDDB7070C60D2
:1010F000B84FFD769386F63F137707C0B8CFB84F49
:10110000758F856693860680558FB8CFB787006048
:1011100037171B089387C70B1307B78198C3A9BB61
:10112000F2406244D2444249B249224A924A05619D
:101130008280411122C406C626C2378400605C4CFE
:10114000370700019306F7FFF58FD98F5CCC2A860D
:1011500081463705D007814597F0C7FFE780407586
:10116000444CB7C7FF003A057D8DB74700FFFD1718
:10117000FD8C458D48CC5C4C71771307F703F98FD4
:1011800093E707105CCCB240224492444101828034
:1011900041114AC006C622C426C2B7070C60A44F3C
:1011A00005472A89A9808D88638EE40209476388F0
:1011B000E406B5E0A04F93878705EFF08FA5137481
:1011C000F43F0504B3578502232099002322A90088
:1011D000232489002326F900B24022449244024984
:1011E0004101828037070C601C47210718438D8B13
:1011F000118B39E31305001485CF05476385E7029A
:1012000085659385C5B83705023C1305050F9730F2
:10121000C801E780208D85659385B5B9EDB7214577
:10122000A147054455B785449307000A0D4469BF9B
:1012300093070005114449BF1305001EDDFF930706
:101240000005194451B7B707023C79719387C70865
:10125000014506D622D426D24AD0C4434ECE52CC23
:1012600097F0C7FFE78080DB2A8481470D478D46D2
:10127000354681451305D0069700C8FFE780806E8C
:10128000814709478946354681451305D0069700B1
:10129000C8FFE780206D378500600146B705000470
:1012A000130545039700C801E78000D83787006021
:1012B0005C4FB70600144178A207A183D58F5CCF9D
:1012C0005C4FF1769386F603F58F93E707505CCF7A
:1012D000378700605C57C1769386F60FF58F93E7EA
:1012E00007205CD7B7870060D8531308F81FB705ED
:1012F00000023377070113670720D8D3D85313852B
:10130000F5FF370601FE137707E013671700D8D300
:10131000D8537D16C166698F4D8FD8D3D853718F3E
:10132000558FD8D3B7870060985733770701136775
:10133000072098D79857137707E01367170098D7B7
:101340009857698F4D8F98D79857718F558F98D729
:10135000B7870060985B698F4D8F98DB985B718FC2
:10136000558F98DB9307F4FF13F704F093B717003A
:10137000697693644701BA0741831306067093E7C1
:101380004701718FD98FFD16C207F58CDD8C9397BD
:10139000140063D40704B79700609387C786984307
:1013A00085461D8B6317D72E9C4301479D46B1830D
:1013B00093F7F70F19468145130510069700C8FFEC
:1013C000E780405A854719479946154681451305D8
:1013D00010069700C8FFE780E058B7970060938732
:1013E00007859C430947C9839D8B6374F738B7977A
:1013F000006093878785804315807D88630B043662
:101400001104F14763F387007144379700601307B5
:1014100047850C4310431C43144337970060130760
:1014200087851843F582139525010E071377F70F6B
:10143000558F3982D58393D675006340053293F674
:10144000F607937506041375F60789C51376F60338
:101450003305C04013F6070893F5F70F09C693F755
:10146000F707B305F0409377070889C71377F707A5
:101470003307E04051461305550D9307C4FEB3876B
:10148000A7029386760D0D65130505A33307C702E2
:10149000938767F0B385C5020D661306C6A632971B
:1014A0003E97ED57B387F6023386A5003E96BD47BB
:1014B000637AE60071563386C6022E96FD4585078F
:1014C0006392B72A93F7F70F01479146114681457A
:1014D0001305D0069700C8FFE780C048A2870147E0
:1014E0009146194681451305D0069700C8FFE7804D
:1014F00060479397740063D9070437450C60014631
:1015000085451305C50A9700C801E780E0B1374556
:101510000C600146854521059700C801E780C0B0F1
:1015200037350060014685451305C50D9700C80194
:10153000E78080AF37250060014685451305C50D5E
:101540009700C801E78040AE9397640063D3071209
:10155000378500600146B7050004130505079700AD
:10156000C801E78060AC0146896537850060970057
:10157000C801E78060AB378500600146B705000110
:10158000130545039700C801E78000AA378500606E
:10159000370680008145130545039700C801E780A1
:1015A000A0A8378500600146B70504001305450370
